:060000000A128A11FC2F18
:100F7E0083160313860183120313860106140930A8
:100F8E00F2001E30F100E430F000F00BCC2FF10B2C
:100F9E00CC2FF20BCC2F0000831203130610061574
:100FAE000630F2001330F100AD30F000F00BDD2F03
:100FBE00F10BDD2FF20BDD2FE42F8312031306113D
:100FCE0086140930F2001E30F100E430F000F00B10
:100FDE00EE2FF10BEE2FF20BEE2F00008312031308
:100FEE008610C52F0A128A11002883010A128A114F
:020FFE00BF2F03
:02400E00FF3F72
:00000001FF
